{
  "contractName": "Simplebank",
  "abi": [
    {
      "inputs": [],
      "stateMutability": "nonpayable",
      "type": "constructor"
    },
    {
      "inputs": [],
      "name": "numberOfFunders",
      "outputs": [
        {
          "internalType": "uint256",
          "name": "",
          "type": "uint256"
        }
      ],
      "stateMutability": "view",
      "type": "function",
      "constant": true
    },
    {
      "inputs": [],
      "name": "owner",
      "outputs": [
        {
          "internalType": "address",
          "name": "",
          "type": "address"
        }
      ],
      "stateMutability": "view",
      "type": "function",
      "constant": true
    },
    {
      "inputs": [
        {
          "internalType": "address",
          "name": "newOwner",
          "type": "address"
        }
      ],
      "name": "transferOwnership",
      "outputs": [],
      "stateMutability": "nonpayable",
      "type": "function"
    },
    {
      "inputs": [],
      "name": "addFunds",
      "outputs": [],
      "stateMutability": "payable",
      "type": "function",
      "payable": true
    },
    {
      "inputs": [],
      "name": "getAllFunders",
      "outputs": [
        {
          "internalType": "address[]",
          "name": "",
          "type": "address[]"
        }
      ],
      "stateMutability": "view",
      "type": "function",
      "constant": true
    },
    {
      "inputs": [
        {
          "internalType": "uint256",
          "name": "withdrawAmount",
          "type": "uint256"
        }
      ],
      "name": "withdraw",
      "outputs": [],
      "stateMutability": "nonpayable",
      "type": "function"
    }
  ],
  "bytecode": "0x608060405234801561001057600080fd5b5033600460006101000a81548173ffffffffffffffffffffffffffffffffffffffff021916908373ffffffffffffffffffffffffffffffffffffffff160217905550610a06806100616000396000f3fe6080604052600436106100555760003560e01c80632e1a7d4d1461005a5780636fbbb55d146100835780638da5cb5b146100ae578063a26759cb146100d9578063dc79a7fc146100e3578063f2fde38b1461010e575b600080fd5b34801561006657600080fd5b50610081600480360381019061007c91906105cc565b610137565b005b34801561008f57600080fd5b50610098610224565b6040516100a591906106e9565b60405180910390f35b3480156100ba57600080fd5b506100c361031d565b6040516100d0919061071a565b60405180910390f35b6100e1610343565b005b3480156100ef57600080fd5b506100f86104b7565b6040516101059190610744565b60405180910390f35b34801561011a57600080fd5b506101356004803603810190610130919061078b565b6104bd565b005b670de0b6b3a76400008110158061019b5750600460009054906101000a900473ffffffffffffffffffffffffffffffffffffffff1673ffffffffffffffffffffffffffffffffffffffff163373ffffffffffffffffffffffffffffffffffffffff16145b6101da576040517f08c379a00000000000000000000000000000000000000000000000000000000081526004016101d19061083b565b60405180910390fd5b3373ffffffffffffffffffffffffffffffffffffffff166108fc829081150290604051600060405180830381858888f19350505050158015610220573d6000803e3d6000fd5b5050565b60606000805467ffffffffffffffff8111156102435761024261085b565b5b6040519080825280602002602001820160405280156102715781602001602082028036833780820191505090505b50905060005b600054811015610315576002600082815260200190815260200160002060009054906101000a900473ffffffffffffffffffffffffffffffffffffffff168282815181106102c8576102c761088a565b5b602002602001019073ffffffffffffffffffffffffffffffffffffffff16908173ffffffffffffffffffffffffffffffffffffffff1681525050808061030d906108e8565b915050610277565b508091505090565b600460009054906101000a900473ffffffffffffffffffffffffffffffffffffffff1681565b6000339050600160008273ffffffffffffffffffffffffffffffffffffffff1673ffffffffffffffffffffffffffffffffffffffff16815260200190815260200160002060009054906101000a900460ff1661045e5760008060008154809291906103ad906108e8565b91905055905060018060008473ffffffffffffffffffffffffffffffffffffffff1673ffffffffffffffffffffffffffffffffffffffff16815260200190815260200160002060006101000a81548160ff021916908315150217905550816002600083815260200190815260200160002060006101000a81548173ffffffffffffffffffffffffffffffffffffffff021916908373ffffffffffffffffffffffffffffffffffffffff160217905550505b34600360008373ffffffffffffffffffffffffffffffffffffffff1673ffffffffffffffffffffffffffffffffffffffff16815260200190815260200160002060008282546104ad9190610930565b9250508190555050565b60005481565b600460009054906101000a900473ffffffffffffffffffffffffffffffffffffffff1673ffffffffffffffffffffffffffffffffffffffff163373ffffffffffffffffffffffffffffffffffffffff161461054d576040517f08c379a0000000000000000000000000000000000000000000000000000000008152600401610544906109b0565b60405180910390fd5b80600460006101000a81548173ffffffffffffffffffffffffffffffffffffffff021916908373ffffffffffffffffffffffffffffffffffffffff16021790555050565b600080fd5b6000819050919050565b6105a981610596565b81146105b457600080fd5b50565b6000813590506105c6816105a0565b92915050565b6000602082840312156105e2576105e1610591565b5b60006105f0848285016105b7565b91505092915050565b600081519050919050565b600082825260208201905092915050565b6000819050602082019050919050565b600073ffffffffffffffffffffffffffffffffffffffff82169050919050565b600061065082610625565b9050919050565b61066081610645565b82525050565b60006106728383610657565b60208301905092915050565b6000602082019050919050565b6000610696826105f9565b6106a08185610604565b93506106ab83610615565b8060005b838110156106dc5781516106c38882610666565b97506106ce8361067e565b9250506001810190506106af565b5085935050505092915050565b60006020820190508181036000830152610703818461068b565b905092915050565b61071481610645565b82525050565b600060208201905061072f600083018461070b565b92915050565b61073e81610596565b82525050565b60006020820190506107596000830184610735565b92915050565b61076881610645565b811461077357600080fd5b50565b6000813590506107858161075f565b92915050565b6000602082840312156107a1576107a0610591565b5b60006107af84828501610776565b91505092915050565b600082825260208201905092915050565b7f596f752063616e6e6f74207769746864726177206d6f7265207468616e20312060008201527f4574686572000000000000000000000000000000000000000000000000000000602082015250565b60006108256025836107b8565b9150610830826107c9565b604082019050919050565b6000602082019050818103600083015261085481610818565b9050919050565b7f4e487b7100000000000000000000000000000000000000000000000000000000600052604160045260246000fd5b7f4e487b7100000000000000000000000000000000000000000000000000000000600052603260045260246000fd5b7f4e487b7100000000000000000000000000000000000000000000000000000000600052601160045260246000fd5b60006108f382610596565b91507fffffffffffffffffffffffffffffffffffffffffffffffffffffffffffffffff8203610925576109246108b9565b5b600182019050919050565b600061093b82610596565b915061094683610596565b925082820190508082111561095e5761095d6108b9565b5b92915050565b7f4f6e6c7920746865206f776e65722063616e20646f2074686174000000000000600082015250565b600061099a601a836107b8565b91506109a582610964565b602082019050919050565b600060208201905081810360008301526109c98161098d565b905091905056fea2646970667358221220ef35097cc098aa4e7430769a307cd7a7b9123df32b3997cdcaf534c4474d079b64736f6c63430008110033",
  "immutableReferences": {},
  "source": "// SPDX-License-Identifier: MIT\npragma solidity >=0.4.22 <0.9.0;\n \n\n\ncontract Simplebank {\n    uint public numberOfFunders;\n    mapping(address => bool) private funders;\n    mapping(uint => address) private lutFunders;\n    mapping(address => uint) private lastFundAmount;\n    address public owner;\n\n    constructor() {\n        owner = msg.sender;\n    }  \n\n    modifier onlyOwner(){\n        require(msg.sender==owner, \"Only the owner can do that\");\n        _;\n\n    }   \n\n    function transferOwnership(address newOwner) external onlyOwner{\n        owner = newOwner;\n\n                 \n    }           \n\n    function addFunds() external payable{\n       address funder = msg.sender;\n       if(!funders[funder]){\n        uint index = numberOfFunders++;\n        funders[funder] = true;\n        lutFunders[index] = funder;\n        }\n        lastFundAmount[funder] += msg.value;\n    }\n    function getAllFunders() external view returns(address[] memory){\n        address[] memory _funders = new address[](numberOfFunders);\n        for(uint i=0; i<numberOfFunders; i++){\n            _funders[i] = lutFunders[i];\n        }\n    return _funders;\n    }\n\n\n    function withdraw(uint withdrawAmount) external {\n        require(withdrawAmount >= 1000000000000000000 || msg.sender==owner, \"You cannot withdraw more than 1 Ether\");\n        payable (msg.sender).transfer(withdrawAmount);\n    }\n    \n\n\n\n}\n//const instance = await Simplebank.deployed()\n//instance.addFunds({value: \"500000000000000000\", from: accounts[0]})\n//instance.addFunds({value: \"500000000000000000\", from: accounts[1]})\n//const funds = instance.funds()\n//instance.getAllFunders()\n//instance.withdraw(\"1000000000000000000\", {from: accounts[1]})",
  "sourcePath": "/Users/epushett/school_react/web3test/contracts/Simplebank.sol",
  "compiler": {
    "name": "solc",
    "version": "0.8.17+commit.8df45f5f.Emscripten.clang"
  },
  "schemaVersion": "3.4.11",
  "updatedAt": "2023-01-26T08:13:29.241Z",
  "networkType": "ethereum",
  "devdoc": {
    "kind": "dev",
    "methods": {},
    "version": 1
  },
  "userdoc": {
    "kind": "user",
    "methods": {},
    "version": 1
  }
}